{
  "contractName": "Bank",
  "abi": [
    {
      "inputs": [
        {
          "internalType": "contract Tether",
          "name": "_thr",
          "type": "address"
        },
        {
          "internalType": "contract Reward",
          "name": "_rwd",
          "type": "address"
        }
      ],
      "stateMutability": "nonpayable",
      "type": "constructor"
    },
    {
      "inputs": [
        {
          "internalType": "address",
          "name": "",
          "type": "address"
        }
      ],
      "name": "hasStaked",
      "outputs": [
        {
          "internalType": "bool",
          "name": "",
          "type": "bool"
        }
      ],
      "stateMutability": "view",
      "type": "function",
      "constant": true
    },
    {
      "inputs": [
        {
          "internalType": "address",
          "name": "",
          "type": "address"
        }
      ],
      "name": "isStaking",
      "outputs": [
        {
          "internalType": "bool",
          "name": "",
          "type": "bool"
        }
      ],
      "stateMutability": "view",
      "type": "function",
      "constant": true
    },
    {
      "inputs": [],
      "name": "name",
      "outputs": [
        {
          "internalType": "string",
          "name": "",
          "type": "string"
        }
      ],
      "stateMutability": "view",
      "type": "function",
      "constant": true
    },
    {
      "inputs": [],
      "name": "owner",
      "outputs": [
        {
          "internalType": "address",
          "name": "",
          "type": "address"
        }
      ],
      "stateMutability": "view",
      "type": "function",
      "constant": true
    },
    {
      "inputs": [],
      "name": "reward",
      "outputs": [
        {
          "internalType": "contract Reward",
          "name": "",
          "type": "address"
        }
      ],
      "stateMutability": "view",
      "type": "function",
      "constant": true
    },
    {
      "inputs": [
        {
          "internalType": "uint256",
          "name": "",
          "type": "uint256"
        }
      ],
      "name": "stakers",
      "outputs": [
        {
          "internalType": "address",
          "name": "",
          "type": "address"
        }
      ],
      "stateMutability": "view",
      "type": "function",
      "constant": true
    },
    {
      "inputs": [
        {
          "internalType": "address",
          "name": "",
          "type": "address"
        }
      ],
      "name": "stakingBalance",
      "outputs": [
        {
          "internalType": "uint256",
          "name": "",
          "type": "uint256"
        }
      ],
      "stateMutability": "view",
      "type": "function",
      "constant": true
    },
    {
      "inputs": [],
      "name": "tether",
      "outputs": [
        {
          "internalType": "contract Tether",
          "name": "",
          "type": "address"
        }
      ],
      "stateMutability": "view",
      "type": "function",
      "constant": true
    },
    {
      "inputs": [
        {
          "internalType": "uint256",
          "name": "amount",
          "type": "uint256"
        }
      ],
      "name": "depositTokens",
      "outputs": [],
      "stateMutability": "nonpayable",
      "type": "function"
    },
    {
      "inputs": [],
      "name": "issueTokens",
      "outputs": [],
      "stateMutability": "nonpayable",
      "type": "function"
    },
    {
      "inputs": [],
      "name": "unstake",
      "outputs": [],
      "stateMutability": "nonpayable",
      "type": "function"
    }
  ],
  "bytecode": "0x60806040526040518060400160405280601281526020017f446563656e7472616c697a65642042616e6b0000000000000000000000000000815250600090805190602001906200005192919062000150565b503480156200005f57600080fd5b50604051620014cc380380620014cc8339818101604052810190620000859190620002c3565b81600260006101000a81548173ffffffffffffffffffffffffffffffffffffffff021916908373ffffffffffffffffffffffffffffffffffffffff16021790555080600360006101000a81548173ffffffffffffffffffffffffffffffffffffffff021916908373ffffffffffffffffffffffffffffffffffffffff16021790555033600160006101000a81548173ffffffffffffffffffffffffffffffffffffffff021916908373ffffffffffffffffffffffffffffffffffffffff16021790555050506200036f565b8280546200015e9062000339565b90600052602060002090601f016020900481019282620001825760008555620001ce565b82601f106200019d57805160ff1916838001178555620001ce565b82800160010185558215620001ce579182015b82811115620001cd578251825591602001919060010190620001b0565b5b509050620001dd9190620001e1565b5090565b5b80821115620001fc576000816000905550600101620001e2565b5090565b600080fd5b600073ffffffffffffffffffffffffffffffffffffffff82169050919050565b6000620002328262000205565b9050919050565b6000620002468262000225565b9050919050565b620002588162000239565b81146200026457600080fd5b50565b60008151905062000278816200024d565b92915050565b60006200028b8262000225565b9050919050565b6200029d816200027e565b8114620002a957600080fd5b50565b600081519050620002bd8162000292565b92915050565b60008060408385031215620002dd57620002dc62000200565b5b6000620002ed8582860162000267565b92505060206200030085828601620002ac565b9150509250929050565b7f4e487b7100000000000000000000000000000000000000000000000000000000600052602260045260246000fd5b600060028204905060018216806200035257607f821691505b602082108114156200036957620003686200030a565b5b50919050565b61114d806200037f6000396000f3fe608060405234801561001057600080fd5b50600436106100a95760003560e01c806360ab58521161007157806360ab5852146101425780636f49712b1461014c5780638da5cb5b1461017c578063c93c8f341461019a578063dd49756e146101ca578063fd5e6dd1146101e6576100a9565b806306fdde03146100ae578063228cb733146100cc5780632def6620146100ea57806345bc78ab146100f45780635efc071a14610124575b600080fd5b6100b6610216565b6040516100c39190610ae1565b60405180910390f35b6100d46102a4565b6040516100e19190610b82565b60405180910390f35b6100f26102ca565b005b61010e60048036038101906101099190610be0565b6104cb565b60405161011b9190610c26565b60405180910390f35b61012c6104e3565b6040516101399190610c62565b60405180910390f35b61014a610509565b005b61016660048036038101906101619190610be0565b6106ff565b6040516101739190610c98565b60405180910390f35b61018461071f565b6040516101919190610cc2565b60405180910390f35b6101b460048036038101906101af9190610be0565b610745565b6040516101c19190610c98565b60405180910390f35b6101e460048036038101906101df9190610d09565b610765565b005b61020060048036038101906101fb9190610d09565b610a09565b60405161020d9190610cc2565b60405180910390f35b6000805461022390610d65565b80601f016020809104026020016040519081016040528092919081815260200182805461024f90610d65565b801561029c5780601f106102715761010080835404028352916020019161029c565b820191906000526020600020905b81548152906001019060200180831161027f57829003601f168201915b505050505081565b600360009054906101000a900473ffffffffffffffffffffffffffffffffffffffff1681565b6000600460003373ffffffffffffffffffffffffffffffffffffffff1673ffffffffffffffffffffffffffffffffffffffff168152602001908152602001600020541161034c576040517f08c379a000000000000000000000000000000000000000000000000000000000815260040161034390610e09565b60405180910390fd5b600260009054906101000a900473ffffffffffffffffffffffffffffffffffffffff1673ffffffffffffffffffffffffffffffffffffffff1663a9059cbb33600460003373ffffffffffffffffffffffffffffffffffffffff1673ffffffffffffffffffffffffffffffffffffffff168152602001908152602001600020546040518363ffffffff1660e01b81526004016103e8929190610e29565b6020604051808303816000875af1158015610407573d6000803e3d6000fd5b505050506040513d601f19601f8201168201806040525081019061042b9190610e7e565b506000600460003373ffffffffffffffffffffffffffffffffffffffff1673ffffffffffffffffffffffffffffffffffffffff168152602001908152602001600020819055506000600560003373ffffffffffffffffffffffffffffffffffffffff1673ffffffffffffffffffffffffffffffffffffffff16815260200190815260200160002060006101000a81548160ff021916908315150217905550565b60046020528060005260406000206000915090505481565b600260009054906101000a900473ffffffffffffffffffffffffffffffffffffffff1681565b600160009054906101000a900473ffffffffffffffffffffffffffffffffffffffff1673ffffffffffffffffffffffffffffffffffffffff163373ffffffffffffffffffffffffffffffffffffffff1614610599576040517f08c379a000000000000000000000000000000000000000000000000000000000815260040161059090610ef7565b60405180910390fd5b60005b6007805490508110156106fc576000600782815481106105bf576105be610f17565b5b9060005260206000200160009054906101000a900473ffffffffffffffffffffffffffffffffffffffff16905060006009600460008473ffffffffffffffffffffffffffffffffffffffff1673ffffffffffffffffffffffffffffffffffffffff1681526020019081526020016000205461063a9190610fa4565b905060008111156106e757600360009054906101000a900473ffffffffffffffffffffffffffffffffffffffff1673ffffffffffffffffffffffffffffffffffffffff1663a9059cbb83836040518363ffffffff1660e01b81526004016106a2929190610e29565b6020604051808303816000875af11580156106c1573d6000803e3d6000fd5b505050506040513d601f19601f820116820180604052508101906106e59190610e7e565b505b505080806106f490610fd5565b91505061059c565b50565b60056020528060005260406000206000915054906101000a900460ff1681565b600160009054906101000a900473ffffffffffffffffffffffffffffffffffffffff1681565b60066020528060005260406000206000915054906101000a900460ff1681565b600081116107a8576040517f08c379a000000000000000000000000000000000000000000000000000000000815260040161079f9061106a565b60405180910390fd5b600260009054906101000a900473ffffffffffffffffffffffffffffffffffffffff1673ffffffffffffffffffffffffffffffffffffffff166323b872dd3330846040518463ffffffff1660e01b81526004016108079392919061108a565b6020604051808303816000875af1158015610826573d6000803e3d6000fd5b505050506040513d601f19601f8201168201806040525081019061084a9190610e7e565b5080600460003373ffffffffffffffffffffffffffffffffffffffff1673ffffffffffffffffffffffffffffffffffffffff168152602001908152602001600020600082825461089a91906110c1565b92505081905550600660003373ffffffffffffffffffffffffffffffffffffffff1673ffffffffffffffffffffffffffffffffffffffff16815260200190815260200160002060009054906101000a900460ff16610956576007339080600181540180825580915050600190039060005260206000200160009091909190916101000a81548173ffffffffffffffffffffffffffffffffffffffff021916908373ffffffffffffffffffffffffffffffffffffffff1602179055505b6001600560003373ffffffffffffffffffffffffffffffffffffffff1673ffffffffffffffffffffffffffffffffffffffff16815260200190815260200160002060006101000a81548160ff0219169083151502179055506001600660003373ffffffffffffffffffffffffffffffffffffffff1673ffffffffffffffffffffffffffffffffffffffff16815260200190815260200160002060006101000a81548160ff02191690831515021790555050565b60078181548110610a1957600080fd5b906000526020600020016000915054906101000a900473ffffffffffffffffffffffffffffffffffffffff1681565b600081519050919050565b600082825260208201905092915050565b60005b83811015610a82578082015181840152602081019050610a67565b83811115610a91576000848401525b50505050565b6000601f19601f8301169050919050565b6000610ab382610a48565b610abd8185610a53565b9350610acd818560208601610a64565b610ad681610a97565b840191505092915050565b60006020820190508181036000830152610afb8184610aa8565b905092915050565b600073ffffffffffffffffffffffffffffffffffffffff82169050919050565b6000819050919050565b6000610b48610b43610b3e84610b03565b610b23565b610b03565b9050919050565b6000610b5a82610b2d565b9050919050565b6000610b6c82610b4f565b9050919050565b610b7c81610b61565b82525050565b6000602082019050610b976000830184610b73565b92915050565b600080fd5b6000610bad82610b03565b9050919050565b610bbd81610ba2565b8114610bc857600080fd5b50565b600081359050610bda81610bb4565b92915050565b600060208284031215610bf657610bf5610b9d565b5b6000610c0484828501610bcb565b91505092915050565b6000819050919050565b610c2081610c0d565b82525050565b6000602082019050610c3b6000830184610c17565b92915050565b6000610c4c82610b4f565b9050919050565b610c5c81610c41565b82525050565b6000602082019050610c776000830184610c53565b92915050565b60008115159050919050565b610c9281610c7d565b82525050565b6000602082019050610cad6000830184610c89565b92915050565b610cbc81610ba2565b82525050565b6000602082019050610cd76000830184610cb3565b92915050565b610ce681610c0d565b8114610cf157600080fd5b50565b600081359050610d0381610cdd565b92915050565b600060208284031215610d1f57610d1e610b9d565b5b6000610d2d84828501610cf4565b91505092915050565b7f4e487b7100000000000000000000000000000000000000000000000000000000600052602260045260246000fd5b60006002820490506001821680610d7d57607f821691505b60208210811415610d9157610d90610d36565b5b50919050565b7f796f7520646f6e74206861766520616e792062616c616e636520746f20756e7360008201527f74616b6500000000000000000000000000000000000000000000000000000000602082015250565b6000610df3602483610a53565b9150610dfe82610d97565b604082019050919050565b60006020820190508181036000830152610e2281610de6565b9050919050565b6000604082019050610e3e6000830185610cb3565b610e4b6020830184610c17565b9392505050565b610e5b81610c7d565b8114610e6657600080fd5b50565b600081519050610e7881610e52565b92915050565b600060208284031215610e9457610e93610b9d565b5b6000610ea284828501610e69565b91505092915050565b7f63616c6c6572206d7573742062652061646d696e000000000000000000000000600082015250565b6000610ee1601483610a53565b9150610eec82610eab565b602082019050919050565b60006020820190508181036000830152610f1081610ed4565b9050919050565b7f4e487b7100000000000000000000000000000000000000000000000000000000600052603260045260246000fd5b7f4e487b7100000000000000000000000000000000000000000000000000000000600052601260045260246000fd5b7f4e487b7100000000000000000000000000000000000000000000000000000000600052601160045260246000fd5b6000610faf82610c0d565b9150610fba83610c0d565b925082610fca57610fc9610f46565b5b828204905092915050565b6000610fe082610c0d565b91507fffffffffffffffffffffffffffffffffffffffffffffffffffffffffffffffff82141561101357611012610f75565b5b600182019050919050565b7f63616e6e6f74206e6f206465706f736974203020746f6b656e73000000000000600082015250565b6000611054601a83610a53565b915061105f8261101e565b602082019050919050565b6000602082019050818103600083015261108381611047565b9050919050565b600060608201905061109f6000830186610cb3565b6110ac6020830185610cb3565b6110b96040830184610c17565b949350505050565b60006110cc82610c0d565b91506110d783610c0d565b9250827fffffffffffffffffffffffffffffffffffffffffffffffffffffffffffffffff0382111561110c5761110b610f75565b5b82820190509291505056fea2646970667358221220c6442c427397ae6d847909f9dec209ff0faa9eb52225866ea00f8588ac3031c664736f6c634300080b0033",
  "immutableReferences": {},
  "source": "pragma solidity ^0.8.1;\n\nimport \"./Reward.sol\";\nimport \"./Tether.sol\";\n\ncontract Bank {\n    string public name = \"Decentralized Bank\";\n    address public owner;\n    Tether public tether;\n    Reward public reward;\n    mapping(address => uint256) public stakingBalance;\n    mapping(address => bool) public isStaking;\n    mapping(address => bool) public hasStaked;\n    address[] public stakers;\n\n    constructor(Tether _thr, Reward _rwd) {\n        tether = _thr;\n        reward = _rwd;\n        owner = msg.sender;\n    }\n\n    function depositTokens(uint256 amount) public {\n        require(amount > 0, \"cannot no deposit 0 tokens\");\n        tether.transferFrom(msg.sender, address(this), amount);\n\n        stakingBalance[msg.sender] += amount;\n\n        if (!hasStaked[msg.sender]) {\n            stakers.push(msg.sender);\n        }\n\n        isStaking[msg.sender] = true;\n        hasStaked[msg.sender] = true;\n    }\n\n    function issueTokens() public {\n        require(msg.sender == owner, \"caller must be admin\");\n        for (uint256 i = 0; i < stakers.length; i++) {\n            address recipient = stakers[i];\n            uint256 balance = stakingBalance[recipient] / 9;\n            if (balance > 0) {\n                reward.transfer(recipient, balance);\n            }\n        }\n    }\n\n    function unstake() public {\n        require(\n            stakingBalance[msg.sender] > 0,\n            \"you dont have any balance to unstake\"\n        );\n\n        tether.transfer(msg.sender, stakingBalance[msg.sender]);\n        stakingBalance[msg.sender] = 0;\n        isStaking[msg.sender] = false;\n    }\n}\n",
  "sourcePath": "/home/faizan/solidity/staking-contract/contracts/Bank.sol",
  "compiler": {
    "name": "solc",
    "version": "0.8.11+commit.d7f03943.Emscripten.clang"
  },
  "schemaVersion": "3.4.4",
  "updatedAt": "2022-01-18T22:03:45.196Z",
  "networkType": "ethereum",
  "devdoc": {
    "kind": "dev",
    "methods": {},
    "version": 1
  },
  "userdoc": {
    "kind": "user",
    "methods": {},
    "version": 1
  }
}