{
  "contractName": "Tether",
  "abi": [
    {
      "inputs": [],
      "stateMutability": "nonpayable",
      "type": "constructor"
    },
    {
      "anonymous": false,
      "inputs": [
        {
          "indexed": true,
          "internalType": "address",
          "name": "_owner",
          "type": "address"
        },
        {
          "indexed": true,
          "internalType": "address",
          "name": "_spender",
          "type": "address"
        },
        {
          "indexed": false,
          "internalType": "uint256",
          "name": "_value",
          "type": "uint256"
        }
      ],
      "name": "Approval",
      "type": "event"
    },
    {
      "anonymous": false,
      "inputs": [
        {
          "indexed": true,
          "internalType": "address",
          "name": "_from",
          "type": "address"
        },
        {
          "indexed": true,
          "internalType": "address",
          "name": "_to",
          "type": "address"
        },
        {
          "indexed": false,
          "internalType": "uint256",
          "name": "_value",
          "type": "uint256"
        }
      ],
      "name": "Transfer",
      "type": "event"
    },
    {
      "inputs": [
        {
          "internalType": "address",
          "name": "",
          "type": "address"
        },
        {
          "internalType": "address",
          "name": "",
          "type": "address"
        }
      ],
      "name": "allowance",
      "outputs": [
        {
          "internalType": "uint256",
          "name": "",
          "type": "uint256"
        }
      ],
      "stateMutability": "view",
      "type": "function",
      "constant": true
    },
    {
      "inputs": [
        {
          "internalType": "address",
          "name": "",
          "type": "address"
        }
      ],
      "name": "balances",
      "outputs": [
        {
          "internalType": "uint256",
          "name": "",
          "type": "uint256"
        }
      ],
      "stateMutability": "view",
      "type": "function",
      "constant": true
    },
    {
      "inputs": [],
      "name": "name",
      "outputs": [
        {
          "internalType": "string",
          "name": "",
          "type": "string"
        }
      ],
      "stateMutability": "view",
      "type": "function",
      "constant": true
    },
    {
      "inputs": [],
      "name": "symbol",
      "outputs": [
        {
          "internalType": "string",
          "name": "",
          "type": "string"
        }
      ],
      "stateMutability": "view",
      "type": "function",
      "constant": true
    },
    {
      "inputs": [],
      "name": "decimals",
      "outputs": [
        {
          "internalType": "uint8",
          "name": "",
          "type": "uint8"
        }
      ],
      "stateMutability": "view",
      "type": "function",
      "constant": true
    },
    {
      "inputs": [],
      "name": "totalSupply",
      "outputs": [
        {
          "internalType": "uint256",
          "name": "",
          "type": "uint256"
        }
      ],
      "stateMutability": "view",
      "type": "function",
      "constant": true
    },
    {
      "inputs": [
        {
          "internalType": "address",
          "name": "_owner",
          "type": "address"
        }
      ],
      "name": "balanceOf",
      "outputs": [
        {
          "internalType": "uint256",
          "name": "balance",
          "type": "uint256"
        }
      ],
      "stateMutability": "view",
      "type": "function",
      "constant": true
    },
    {
      "inputs": [
        {
          "internalType": "address",
          "name": "_to",
          "type": "address"
        },
        {
          "internalType": "uint256",
          "name": "amount",
          "type": "uint256"
        }
      ],
      "name": "transfer",
      "outputs": [
        {
          "internalType": "bool",
          "name": "success",
          "type": "bool"
        }
      ],
      "stateMutability": "nonpayable",
      "type": "function"
    },
    {
      "inputs": [
        {
          "internalType": "address",
          "name": "_from",
          "type": "address"
        },
        {
          "internalType": "address",
          "name": "_to",
          "type": "address"
        },
        {
          "internalType": "uint256",
          "name": "_value",
          "type": "uint256"
        }
      ],
      "name": "transferFrom",
      "outputs": [
        {
          "internalType": "bool",
          "name": "success",
          "type": "bool"
        }
      ],
      "stateMutability": "nonpayable",
      "type": "function"
    },
    {
      "inputs": [
        {
          "internalType": "address",
          "name": "_spender",
          "type": "address"
        },
        {
          "internalType": "uint256",
          "name": "_value",
          "type": "uint256"
        }
      ],
      "name": "approve",
      "outputs": [
        {
          "internalType": "bool",
          "name": "success",
          "type": "bool"
        }
      ],
      "stateMutability": "nonpayable",
      "type": "function"
    }
  ],
  "bytecode": "0x60806040526040518060400160405280600681526020017f5465746865720000000000000000000000000000000000000000000000000000815250600090805190602001906200005192919062000124565b506040518060400160405280600481526020017f5553445400000000000000000000000000000000000000000000000000000000815250600190805190602001906200009f92919062000124565b5069d3c21bcecceda10000006002556012600360006101000a81548160ff021916908360ff160217905550348015620000d757600080fd5b50600254600460003373ffffffffffffffffffffffffffffffffffffffff1673ffffffffffffffffffffffffffffffffffffffff1681526020019081526020016000208190555062000239565b828054620001329062000203565b90600052602060002090601f016020900481019282620001565760008555620001a2565b82601f106200017157805160ff1916838001178555620001a2565b82800160010185558215620001a2579182015b82811115620001a157825182559160200191906001019062000184565b5b509050620001b19190620001b5565b5090565b5b80821115620001d0576000816000905550600101620001b6565b5090565b7f4e487b7100000000000000000000000000000000000000000000000000000000600052602260045260246000fd5b600060028204905060018216806200021c57607f821691505b60208210811415620002335762000232620001d4565b5b50919050565b610ec280620002496000396000f3fe608060405234801561001057600080fd5b506004361061009e5760003560e01c8063313ce56711610066578063313ce5671461016f57806370a082311461018d57806395d89b41146101bd578063a9059cbb146101db578063dd62ed3e1461020b5761009e565b806306fdde03146100a3578063095ea7b3146100c157806318160ddd146100f157806323b872dd1461010f57806327e235e31461013f575b600080fd5b6100ab61023b565b6040516100b89190610a22565b60405180910390f35b6100db60048036038101906100d69190610add565b6102cd565b6040516100e89190610b38565b60405180910390f35b6100f96103bf565b6040516101069190610b62565b60405180910390f35b61012960048036038101906101249190610b7d565b6103c9565b6040516101369190610b38565b60405180910390f35b61015960048036038101906101549190610bd0565b6106bb565b6040516101669190610b62565b60405180910390f35b6101776106d3565b6040516101849190610c19565b60405180910390f35b6101a760048036038101906101a29190610bd0565b6106ea565b6040516101b49190610b62565b60405180910390f35b6101c5610733565b6040516101d29190610a22565b60405180910390f35b6101f560048036038101906101f09190610add565b6107c5565b6040516102029190610b38565b60405180910390f35b61022560048036038101906102209190610c34565b610964565b6040516102329190610b62565b60405180910390f35b60606000805461024a90610ca3565b80601f016020809104026020016040519081016040528092919081815260200182805461027690610ca3565b80156102c35780601f10610298576101008083540402835291602001916102c3565b820191906000526020600020905b8154815290600101906020018083116102a657829003601f168201915b5050505050905090565b600081600560003373ffffffffffffffffffffffffffffffffffffffff1673ffffffffffffffffffffffffffffffffffffffff16815260200190815260200160002060008573ffffffffffffffffffffffffffffffffffffffff1673ffffffffffffffffffffffffffffffffffffffff168152602001908152602001600020819055508273ffffffffffffffffffffffffffffffffffffffff163373ffffffffffffffffffffffffffffffffffffffff167f8c5be1e5ebec7d5bd14f71427d1e84f3dd0314c0f7b2291e5b200ac8c7c3b925846040516103ad9190610b62565b60405180910390a36001905092915050565b6000600254905090565b600081600460008673ffffffffffffffffffffffffffffffffffffffff1673ffffffffffffffffffffffffffffffffffffffff16815260200190815260200160002054101561044d576040517f08c379a000000000000000000000000000000000000000000000000000000000815260040161044490610d21565b60405180910390fd5b81600560008673ffffffffffffffffffffffffffffffffffffffff1673ffffffffffffffffffffffffffffffffffffffff16815260200190815260200160002060003373ffffffffffffffffffffffffffffffffffffffff1673ffffffffffffffffffffffffffffffffffffffff16815260200190815260200160002054101561050c576040517f08c379a000000000000000000000000000000000000000000000000000000000815260040161050390610db3565b60405180910390fd5b81600460008673ffffffffffffffffffffffffffffffffffffffff1673ffffffffffffffffffffffffffffffffffffffff168152602001908152602001600020600082825461055b9190610e02565b9250508190555081600460008573ffffffffffffffffffffffffffffffffffffffff1673ffffffffffffffffffffffffffffffffffffffff16815260200190815260200160002060008282546105b19190610e36565b9250508190555081600560008673ffffffffffffffffffffffffffffffffffffffff1673ffffffffffffffffffffffffffffffffffffffff16815260200190815260200160002060003373ffffffffffffffffffffffffffffffffffffffff1673ffffffffffffffffffffffffffffffffffffffff16815260200190815260200160002060008282546106449190610e02565b925050819055508273ffffffffffffffffffffffffffffffffffffffff168473ffffffffffffffffffffffffffffffffffffffff167fddf252ad1be2c89b69c2b068fc378daa952ba7f163c4a11628f55a4df523b3ef846040516106a89190610b62565b60405180910390a3600190509392505050565b60046020528060005260406000206000915090505481565b6000600360009054906101000a900460ff16905090565b6000600460008373ffffffffffffffffffffffffffffffffffffffff1673ffffffffffffffffffffffffffffffffffffffff168152602001908152602001600020549050919050565b60606001805461074290610ca3565b80601f016020809104026020016040519081016040528092919081815260200182805461076e90610ca3565b80156107bb5780601f10610790576101008083540402835291602001916107bb565b820191906000526020600020905b81548152906001019060200180831161079e57829003601f168201915b5050505050905090565b600081600460003373ffffffffffffffffffffffffffffffffffffffff1673ffffffffffffffffffffffffffffffffffffffff168152602001908152602001600020541015610849576040517f08c379a000000000000000000000000000000000000000000000000000000000815260040161084090610d21565b60405180910390fd5b81600460003373ffffffffffffffffffffffffffffffffffffffff1673ffffffffffffffffffffffffffffffffffffffff16815260200190815260200160002060008282546108989190610e02565b9250508190555081600460008573ffffffffffffffffffffffffffffffffffffffff1673ffffffffffffffffffffffffffffffffffffffff16815260200190815260200160002060008282546108ee9190610e36565b925050819055508273ffffffffffffffffffffffffffffffffffffffff163373ffffffffffffffffffffffffffffffffffffffff167fddf252ad1be2c89b69c2b068fc378daa952ba7f163c4a11628f55a4df523b3ef846040516109529190610b62565b60405180910390a36001905092915050565b6005602052816000526040600020602052806000526040600020600091509150505481565b600081519050919050565b600082825260208201905092915050565b60005b838110156109c35780820151818401526020810190506109a8565b838111156109d2576000848401525b50505050565b6000601f19601f8301169050919050565b60006109f482610989565b6109fe8185610994565b9350610a0e8185602086016109a5565b610a17816109d8565b840191505092915050565b60006020820190508181036000830152610a3c81846109e9565b905092915050565b600080fd5b600073ffffffffffffffffffffffffffffffffffffffff82169050919050565b6000610a7482610a49565b9050919050565b610a8481610a69565b8114610a8f57600080fd5b50565b600081359050610aa181610a7b565b92915050565b6000819050919050565b610aba81610aa7565b8114610ac557600080fd5b50565b600081359050610ad781610ab1565b92915050565b60008060408385031215610af457610af3610a44565b5b6000610b0285828601610a92565b9250506020610b1385828601610ac8565b9150509250929050565b60008115159050919050565b610b3281610b1d565b82525050565b6000602082019050610b4d6000830184610b29565b92915050565b610b5c81610aa7565b82525050565b6000602082019050610b776000830184610b53565b92915050565b600080600060608486031215610b9657610b95610a44565b5b6000610ba486828701610a92565b9350506020610bb586828701610a92565b9250506040610bc686828701610ac8565b9150509250925092565b600060208284031215610be657610be5610a44565b5b6000610bf484828501610a92565b91505092915050565b600060ff82169050919050565b610c1381610bfd565b82525050565b6000602082019050610c2e6000830184610c0a565b92915050565b60008060408385031215610c4b57610c4a610a44565b5b6000610c5985828601610a92565b9250506020610c6a85828601610a92565b9150509250929050565b7f4e487b7100000000000000000000000000000000000000000000000000000000600052602260045260246000fd5b60006002820490506001821680610cbb57607f821691505b60208210811415610ccf57610cce610c74565b5b50919050565b7f4e6f7420656e6f7567682062616c616e63650000000000000000000000000000600082015250565b6000610d0b601283610994565b9150610d1682610cd5565b602082019050919050565b60006020820190508181036000830152610d3a81610cfe565b9050919050565b7f616d6f756e7420617070726f766564206973206c657373207468616e20796f7560008201527f27726520747279696e6720746f207370656e6400000000000000000000000000602082015250565b6000610d9d603383610994565b9150610da882610d41565b604082019050919050565b60006020820190508181036000830152610dcc81610d90565b9050919050565b7f4e487b7100000000000000000000000000000000000000000000000000000000600052601160045260246000fd5b6000610e0d82610aa7565b9150610e1883610aa7565b925082821015610e2b57610e2a610dd3565b5b828203905092915050565b6000610e4182610aa7565b9150610e4c83610aa7565b9250827fffffffffffffffffffffffffffffffffffffffffffffffffffffffffffffffff03821115610e8157610e80610dd3565b5b82820190509291505056fea2646970667358221220a5badfda527a11f0d0d36bc040b644eb98fa6bdedf94fc8fa26c206cdcbf244364736f6c634300080b0033",
  "immutableReferences": {},
  "source": "pragma solidity ^0.8.11;\n\ncontract Tether {\n    string tokenName = \"Tether\";\n    string tokenSymbol = \"USDT\";\n    uint256 tokenTotalSupply = 1000000000000000000000000; // 1 million\n    uint8 tokenDecimals = 18;\n\n    mapping(address => uint256) public balances;\n    mapping(address => mapping(address => uint256)) public allowance;\n\n    event Transfer(address indexed _from, address indexed _to, uint256 _value);\n    event Approval(\n        address indexed _owner,\n        address indexed _spender,\n        uint256 _value\n    );\n\n    constructor() {\n        balances[msg.sender] = tokenTotalSupply;\n    }\n\n    function name() public view returns (string memory) {\n        return tokenName;\n    }\n\n    function symbol() public view returns (string memory) {\n        return tokenSymbol;\n    }\n\n    function decimals() public view returns (uint8) {\n        return tokenDecimals;\n    }\n\n    function totalSupply() public view returns (uint256) {\n        return tokenTotalSupply;\n    }\n\n    function balanceOf(address _owner) public view returns (uint256 balance) {\n        return balances[_owner];\n    }\n\n    function transfer(address _to, uint256 amount)\n        public\n        returns (bool success)\n    {\n        require(balances[msg.sender] >= amount, \"Not enough balance\");\n        balances[msg.sender] -= amount;\n        balances[_to] += amount;\n        emit Transfer(msg.sender, _to, amount);\n        return true;\n    }\n\n    function transferFrom(\n        address _from,\n        address _to,\n        uint256 _value\n    ) public returns (bool success) {\n        require(balances[_from] >= _value, \"Not enough balance\");\n        require(\n            allowance[_from][msg.sender] >= _value,\n            \"amount approved is less than you're trying to spend\"\n        );\n        balances[_from] -= _value;\n        balances[_to] += _value;\n        allowance[_from][msg.sender] -= _value;\n        emit Transfer(_from, _to, _value);\n        return true;\n    }\n\n    function approve(address _spender, uint256 _value)\n        public\n        returns (bool success)\n    {\n        allowance[msg.sender][_spender] = _value;\n        emit Approval(msg.sender, _spender, _value);\n        return true;\n    }\n}\n",
  "sourcePath": "/home/faizan/solidity/staking-contract/contracts/Tether.sol",
  "compiler": {
    "name": "solc",
    "version": "0.8.11+commit.d7f03943.Emscripten.clang"
  },
  "schemaVersion": "3.4.4",
  "updatedAt": "2022-01-18T22:03:45.185Z",
  "networkType": "ethereum",
  "devdoc": {
    "kind": "dev",
    "methods": {},
    "version": 1
  },
  "userdoc": {
    "kind": "user",
    "methods": {},
    "version": 1
  }
}